{
  "_format": "hh-sol-artifact-1",
  "contractName": "Pikachu",
  "sourceName": "contracts/SuperPikachu.sol",
  "abi": [
    {
      "inputs": [
        {
          "internalType": "uint256",
          "name": "_totalLimit",
          "type": "uint256"
        },
        {
          "internalType": "uint256",
          "name": "_whitelistLimit",
          "type": "uint256"
        },
        {
          "internalType": "uint256",
          "name": "_plateformLimit",
          "type": "uint256"
        }
      ],
      "stateMutability": "nonpayable",
      "type": "constructor"
    },
    {
      "inputs": [],
      "name": "AdminCannotbeUser",
      "type": "error"
    },
    {
      "inputs": [
        {
          "internalType": "string",
          "name": "status",
          "type": "string"
        }
      ],
      "name": "AlreadyActive",
      "type": "error"
    },
    {
      "inputs": [
        {
          "internalType": "uint256",
          "name": "limit",
          "type": "uint256"
        }
      ],
      "name": "MintingLimitReached",
      "type": "error"
    },
    {
      "inputs": [],
      "name": "MintingPaused",
      "type": "error"
    },
    {
      "inputs": [],
      "name": "NotEqualToTotalLimit",
      "type": "error"
    },
    {
      "inputs": [
        {
          "internalType": "address",
          "name": "_address",
          "type": "address"
        }
      ],
      "name": "NotWhitelistedAdmin",
      "type": "error"
    },
    {
      "inputs": [
        {
          "internalType": "address",
          "name": "_address",
          "type": "address"
        }
      ],
      "name": "NotWhitelistedUser",
      "type": "error"
    },
    {
      "inputs": [
        {
          "internalType": "uint256",
          "name": "limit",
          "type": "uint256"
        }
      ],
      "name": "PleaseCheckValue",
      "type": "error"
    },
    {
      "inputs": [],
      "name": "PublicSaleActive",
      "type": "error"
    },
    {
      "inputs": [],
      "name": "PublicSaleUnactive",
      "type": "error"
    },
    {
      "inputs": [
        {
          "internalType": "uint256",
          "name": "limit",
          "type": "uint256"
        }
      ],
      "name": "TotalLimitReached",
      "type": "error"
    },
    {
      "inputs": [
        {
          "internalType": "address",
          "name": "addrs",
          "type": "address"
        },
        {
          "internalType": "uint256",
          "name": "limit",
          "type": "uint256"
        }
      ],
      "name": "UserLimitReached",
      "type": "error"
    },
    {
      "inputs": [],
      "name": "WhitelistedAdminAllowed",
      "type": "error"
    },
    {
      "anonymous": false,
      "inputs": [
        {
          "indexed": false,
          "internalType": "address",
          "name": "caller",
          "type": "address"
        },
        {
          "indexed": false,
          "internalType": "address",
          "name": "mintedto",
          "type": "address"
        },
        {
          "indexed": false,
          "internalType": "uint256",
          "name": "tokenId",
          "type": "uint256"
        },
        {
          "indexed": false,
          "internalType": "string",
          "name": "name",
          "type": "string"
        }
      ],
      "name": "AdminMinited",
      "type": "event"
    },
    {
      "anonymous": false,
      "inputs": [
        {
          "indexed": false,
          "internalType": "address",
          "name": "removedby",
          "type": "address"
        },
        {
          "indexed": false,
          "internalType": "address",
          "name": "adminremoved",
          "type": "address"
        }
      ],
      "name": "AdminRemoved",
      "type": "event"
    },
    {
      "anonymous": false,
      "inputs": [
        {
          "indexed": false,
          "internalType": "address",
          "name": "owner",
          "type": "address"
        },
        {
          "indexed": false,
          "internalType": "address",
          "name": "adminwhitelised",
          "type": "address"
        }
      ],
      "name": "AdminWhitelisted",
      "type": "event"
    },
    {
      "anonymous": false,
      "inputs": [
        {
          "indexed": true,
          "internalType": "address",
          "name": "owner",
          "type": "address"
        },
        {
          "indexed": true,
          "internalType": "address",
          "name": "approved",
          "type": "address"
        },
        {
          "indexed": true,
          "internalType": "uint256",
          "name": "tokenId",
          "type": "uint256"
        }
      ],
      "name": "Approval",
      "type": "event"
    },
    {
      "anonymous": false,
      "inputs": [
        {
          "indexed": true,
          "internalType": "address",
          "name": "owner",
          "type": "address"
        },
        {
          "indexed": true,
          "internalType": "address",
          "name": "operator",
          "type": "address"
        },
        {
          "indexed": false,
          "internalType": "bool",
          "name": "approved",
          "type": "bool"
        }
      ],
      "name": "ApprovalForAll",
      "type": "event"
    },
    {
      "anonymous": false,
      "inputs": [
        {
          "indexed": true,
          "internalType": "address",
          "name": "previousOwner",
          "type": "address"
        },
        {
          "indexed": true,
          "internalType": "address",
          "name": "newOwner",
          "type": "address"
        }
      ],
      "name": "OwnershipTransferred",
      "type": "event"
    },
    {
      "anonymous": false,
      "inputs": [
        {
          "indexed": false,
          "internalType": "address",
          "name": "account",
          "type": "address"
        }
      ],
      "name": "Paused",
      "type": "event"
    },
    {
      "anonymous": false,
      "inputs": [
        {
          "indexed": true,
          "internalType": "address",
          "name": "from",
          "type": "address"
        },
        {
          "indexed": true,
          "internalType": "address",
          "name": "to",
          "type": "address"
        },
        {
          "indexed": true,
          "internalType": "uint256",
          "name": "tokenId",
          "type": "uint256"
        }
      ],
      "name": "Transfer",
      "type": "event"
    },
    {
      "anonymous": false,
      "inputs": [
        {
          "indexed": false,
          "internalType": "address",
          "name": "account",
          "type": "address"
        }
      ],
      "name": "Unpaused",
      "type": "event"
    },
    {
      "anonymous": false,
      "inputs": [
        {
          "indexed": false,
          "internalType": "address",
          "name": "whitlister",
          "type": "address"
        },
        {
          "indexed": false,
          "internalType": "address",
          "name": "userwhitelised",
          "type": "address"
        }
      ],
      "name": "UserWhitelistd",
      "type": "event"
    },
    {
      "anonymous": false,
      "inputs": [
        {
          "indexed": false,
          "internalType": "address",
          "name": "caller",
          "type": "address"
        },
        {
          "indexed": false,
          "internalType": "address",
          "name": "mintedto",
          "type": "address"
        },
        {
          "indexed": false,
          "internalType": "uint256",
          "name": "tokenId",
          "type": "uint256"
        },
        {
          "indexed": false,
          "internalType": "string",
          "name": "name",
          "type": "string"
        }
      ],
      "name": "pulblicUserMinited",
      "type": "event"
    },
    {
      "anonymous": false,
      "inputs": [
        {
          "indexed": false,
          "internalType": "address",
          "name": "caller",
          "type": "address"
        },
        {
          "indexed": false,
          "internalType": "address",
          "name": "mintedto",
          "type": "address"
        },
        {
          "indexed": false,
          "internalType": "uint256",
          "name": "tokenId",
          "type": "uint256"
        },
        {
          "indexed": false,
          "internalType": "string",
          "name": "name",
          "type": "string"
        }
      ],
      "name": "whitlistUserMinited",
      "type": "event"
    },
    {
      "inputs": [
        {
          "internalType": "uint256",
          "name": "",
          "type": "uint256"
        }
      ],
      "name": "NftData",
      "outputs": [
        {
          "internalType": "string",
          "name": "Name",
          "type": "string"
        },
        {
          "internalType": "string",
          "name": "Hash",
          "type": "string"
        }
      ],
      "stateMutability": "view",
      "type": "function"
    },
    {
      "inputs": [
        {
          "internalType": "address",
          "name": "to",
          "type": "address"
        },
        {
          "internalType": "uint256",
          "name": "tokenId",
          "type": "uint256"
        }
      ],
      "name": "approve",
      "outputs": [],
      "stateMutability": "nonpayable",
      "type": "function"
    },
    {
      "inputs": [
        {
          "internalType": "address",
          "name": "owner",
          "type": "address"
        }
      ],
      "name": "balanceOf",
      "outputs": [
        {
          "internalType": "uint256",
          "name": "",
          "type": "uint256"
        }
      ],
      "stateMutability": "view",
      "type": "function"
    },
    {
      "inputs": [],
      "name": "baseURI",
      "outputs": [
        {
          "internalType": "string",
          "name": "",
          "type": "string"
        }
      ],
      "stateMutability": "view",
      "type": "function"
    },
    {
      "inputs": [
        {
          "internalType": "uint256",
          "name": "tokenId",
          "type": "uint256"
        }
      ],
      "name": "getApproved",
      "outputs": [
        {
          "internalType": "address",
          "name": "",
          "type": "address"
        }
      ],
      "stateMutability": "view",
      "type": "function"
    },
    {
      "inputs": [
        {
          "internalType": "address",
          "name": "owner",
          "type": "address"
        },
        {
          "internalType": "address",
          "name": "operator",
          "type": "address"
        }
      ],
      "name": "isApprovedForAll",
      "outputs": [
        {
          "internalType": "bool",
          "name": "",
          "type": "bool"
        }
      ],
      "stateMutability": "view",
      "type": "function"
    },
    {
      "inputs": [
        {
          "internalType": "address",
          "name": "",
          "type": "address"
        }
      ],
      "name": "isWhitelistedAdmin",
      "outputs": [
        {
          "internalType": "bool",
          "name": "",
          "type": "bool"
        }
      ],
      "stateMutability": "view",
      "type": "function"
    },
    {
      "inputs": [
        {
          "internalType": "address",
          "name": "",
          "type": "address"
        }
      ],
      "name": "isWhitelistedUser",
      "outputs": [
        {
          "internalType": "bool",
          "name": "",
          "type": "bool"
        }
      ],
      "stateMutability": "view",
      "type": "function"
    },
    {
      "inputs": [],
      "name": "mintingPusAct",
      "outputs": [],
      "stateMutability": "nonpayable",
      "type": "function"
    },
    {
      "inputs": [],
      "name": "mintingStatus",
      "outputs": [
        {
          "internalType": "string",
          "name": "",
          "type": "string"
        }
      ],
      "stateMutability": "view",
      "type": "function"
    },
    {
      "inputs": [],
      "name": "name",
      "outputs": [
        {
          "internalType": "string",
          "name": "",
          "type": "string"
        }
      ],
      "stateMutability": "view",
      "type": "function"
    },
    {
      "inputs": [],
      "name": "owner",
      "outputs": [
        {
          "internalType": "address",
          "name": "",
          "type": "address"
        }
      ],
      "stateMutability": "view",
      "type": "function"
    },
    {
      "inputs": [
        {
          "internalType": "uint256",
          "name": "tokenId",
          "type": "uint256"
        }
      ],
      "name": "ownerOf",
      "outputs": [
        {
          "internalType": "address",
          "name": "",
          "type": "address"
        }
      ],
      "stateMutability": "view",
      "type": "function"
    },
    {
      "inputs": [],
      "name": "pauseContract",
      "outputs": [],
      "stateMutability": "nonpayable",
      "type": "function"
    },
    {
      "inputs": [],
      "name": "paused",
      "outputs": [
        {
          "internalType": "bool",
          "name": "",
          "type": "bool"
        }
      ],
      "stateMutability": "view",
      "type": "function"
    },
    {
      "inputs": [],
      "name": "plateformLimit",
      "outputs": [
        {
          "internalType": "uint256",
          "name": "",
          "type": "uint256"
        }
      ],
      "stateMutability": "view",
      "type": "function"
    },
    {
      "inputs": [
        {
          "internalType": "address",
          "name": "to",
          "type": "address"
        },
        {
          "internalType": "uint256",
          "name": "tokenId",
          "type": "uint256"
        },
        {
          "internalType": "string",
          "name": "_name",
          "type": "string"
        },
        {
          "internalType": "string",
          "name": "_metadataHash",
          "type": "string"
        }
      ],
      "name": "platformMinting",
      "outputs": [],
      "stateMutability": "nonpayable",
      "type": "function"
    },
    {
      "inputs": [],
      "name": "publicLimit",
      "outputs": [
        {
          "internalType": "uint256",
          "name": "",
          "type": "uint256"
        }
      ],
      "stateMutability": "view",
      "type": "function"
    },
    {
      "inputs": [
        {
          "internalType": "address",
          "name": "to",
          "type": "address"
        },
        {
          "internalType": "uint256",
          "name": "tokenId",
          "type": "uint256"
        },
        {
          "internalType": "string",
          "name": "_name",
          "type": "string"
        },
        {
          "internalType": "string",
          "name": "_metadataHash",
          "type": "string"
        }
      ],
      "name": "publicMinting",
      "outputs": [],
      "stateMutability": "nonpayable",
      "type": "function"
    },
    {
      "inputs": [],
      "name": "publicSales",
      "outputs": [
        {
          "internalType": "string",
          "name": "",
          "type": "string"
        }
      ],
      "stateMutability": "view",
      "type": "function"
    },
    {
      "inputs": [],
      "name": "publicSalesActDis",
      "outputs": [],
      "stateMutability": "nonpayable",
      "type": "function"
    },
    {
      "inputs": [
        {
          "internalType": "address",
          "name": "_address",
          "type": "address"
        }
      ],
      "name": "removeWAdmin",
      "outputs": [],
      "stateMutability": "nonpayable",
      "type": "function"
    },
    {
      "inputs": [],
      "name": "renounceOwnership",
      "outputs": [],
      "stateMutability": "nonpayable",
      "type": "function"
    },
    {
      "inputs": [
        {
          "internalType": "address",
          "name": "from",
          "type": "address"
        },
        {
          "internalType": "address",
          "name": "to",
          "type": "address"
        },
        {
          "internalType": "uint256",
          "name": "tokenId",
          "type": "uint256"
        }
      ],
      "name": "safeTransferFrom",
      "outputs": [],
      "stateMutability": "nonpayable",
      "type": "function"
    },
    {
      "inputs": [
        {
          "internalType": "address",
          "name": "from",
          "type": "address"
        },
        {
          "internalType": "address",
          "name": "to",
          "type": "address"
        },
        {
          "internalType": "uint256",
          "name": "tokenId",
          "type": "uint256"
        },
        {
          "internalType": "bytes",
          "name": "data",
          "type": "bytes"
        }
      ],
      "name": "safeTransferFrom",
      "outputs": [],
      "stateMutability": "nonpayable",
      "type": "function"
    },
    {
      "inputs": [
        {
          "internalType": "address",
          "name": "operator",
          "type": "address"
        },
        {
          "internalType": "bool",
          "name": "approved",
          "type": "bool"
        }
      ],
      "name": "setApprovalForAll",
      "outputs": [],
      "stateMutability": "nonpayable",
      "type": "function"
    },
    {
      "inputs": [
        {
          "internalType": "bytes4",
          "name": "interfaceId",
          "type": "bytes4"
        }
      ],
      "name": "supportsInterface",
      "outputs": [
        {
          "internalType": "bool",
          "name": "",
          "type": "bool"
        }
      ],
      "stateMutability": "view",
      "type": "function"
    },
    {
      "inputs": [],
      "name": "symbol",
      "outputs": [
        {
          "internalType": "string",
          "name": "",
          "type": "string"
        }
      ],
      "stateMutability": "view",
      "type": "function"
    },
    {
      "inputs": [
        {
          "internalType": "uint256",
          "name": "index",
          "type": "uint256"
        }
      ],
      "name": "tokenByIndex",
      "outputs": [
        {
          "internalType": "uint256",
          "name": "",
          "type": "uint256"
        }
      ],
      "stateMutability": "view",
      "type": "function"
    },
    {
      "inputs": [
        {
          "internalType": "address",
          "name": "owner",
          "type": "address"
        },
        {
          "internalType": "uint256",
          "name": "index",
          "type": "uint256"
        }
      ],
      "name": "tokenOfOwnerByIndex",
      "outputs": [
        {
          "internalType": "uint256",
          "name": "",
          "type": "uint256"
        }
      ],
      "stateMutability": "view",
      "type": "function"
    },
    {
      "inputs": [
        {
          "internalType": "uint256",
          "name": "tokenId",
          "type": "uint256"
        }
      ],
      "name": "tokenURI",
      "outputs": [
        {
          "internalType": "string",
          "name": "",
          "type": "string"
        }
      ],
      "stateMutability": "view",
      "type": "function"
    },
    {
      "inputs": [],
      "name": "totalLimit",
      "outputs": [
        {
          "internalType": "uint256",
          "name": "",
          "type": "uint256"
        }
      ],
      "stateMutability": "view",
      "type": "function"
    },
    {
      "inputs": [],
      "name": "totalSupply",
      "outputs": [
        {
          "internalType": "uint256",
          "name": "",
          "type": "uint256"
        }
      ],
      "stateMutability": "view",
      "type": "function"
    },
    {
      "inputs": [
        {
          "internalType": "address",
          "name": "from",
          "type": "address"
        },
        {
          "internalType": "address",
          "name": "to",
          "type": "address"
        },
        {
          "internalType": "uint256",
          "name": "tokenId",
          "type": "uint256"
        }
      ],
      "name": "transferFrom",
      "outputs": [],
      "stateMutability": "nonpayable",
      "type": "function"
    },
    {
      "inputs": [
        {
          "internalType": "address",
          "name": "newOwner",
          "type": "address"
        }
      ],
      "name": "transferOwnership",
      "outputs": [],
      "stateMutability": "nonpayable",
      "type": "function"
    },
    {
      "inputs": [],
      "name": "unpauseContract",
      "outputs": [],
      "stateMutability": "nonpayable",
      "type": "function"
    },
    {
      "inputs": [
        {
          "internalType": "string",
          "name": "_Url",
          "type": "string"
        }
      ],
      "name": "updateBaseurl",
      "outputs": [],
      "stateMutability": "nonpayable",
      "type": "function"
    },
    {
      "inputs": [
        {
          "internalType": "uint256",
          "name": "limit",
          "type": "uint256"
        }
      ],
      "name": "updateMintingLimit",
      "outputs": [],
      "stateMutability": "nonpayable",
      "type": "function"
    },
    {
      "inputs": [],
      "name": "userLimit",
      "outputs": [
        {
          "internalType": "uint256",
          "name": "",
          "type": "uint256"
        }
      ],
      "stateMutability": "view",
      "type": "function"
    },
    {
      "inputs": [
        {
          "internalType": "address",
          "name": "",
          "type": "address"
        }
      ],
      "name": "userMintedStatus",
      "outputs": [
        {
          "internalType": "uint256",
          "name": "",
          "type": "uint256"
        }
      ],
      "stateMutability": "view",
      "type": "function"
    },
    {
      "inputs": [
        {
          "internalType": "address",
          "name": "to",
          "type": "address"
        },
        {
          "internalType": "uint256",
          "name": "tokenId",
          "type": "uint256"
        },
        {
          "internalType": "string",
          "name": "_name",
          "type": "string"
        },
        {
          "internalType": "string",
          "name": "_metadataHash",
          "type": "string"
        }
      ],
      "name": "userMinting",
      "outputs": [],
      "stateMutability": "nonpayable",
      "type": "function"
    },
    {
      "inputs": [
        {
          "internalType": "address",
          "name": "_address",
          "type": "address"
        }
      ],
      "name": "whitelistAdmin",
      "outputs": [],
      "stateMutability": "nonpayable",
      "type": "function"
    },
    {
      "inputs": [],
      "name": "whitelistLimit",
      "outputs": [
        {
          "internalType": "uint256",
          "name": "",
          "type": "uint256"
        }
      ],
      "stateMutability": "view",
      "type": "function"
    },
    {
      "inputs": [
        {
          "internalType": "address",
          "name": "_address",
          "type": "address"
        }
      ],
      "name": "whitelistUser",
      "outputs": [],
      "stateMutability": "nonpayable",
      "type": "function"
    }
  ],
  "bytecode": "0x60806040526040518060400160405280600881526020017f556e616374697665000000000000000000000000000000000000000000000000815250600d90805190602001906200005192919062000363565b506040518060400160405280600681526020017f4163746976650000000000000000000000000000000000000000000000000000815250600e90805190602001906200009f92919062000363565b506005601355348015620000b257600080fd5b5060405162004fee38038062004fee8339818101604052810190620000d891906200042a565b6040518060400160405280600d81526020017f53757065722050696b61636875000000000000000000000000000000000000008152506040518060400160405280600381526020017f53504b000000000000000000000000000000000000000000000000000000000081525081600090805190602001906200015c92919062000363565b5080600190805190602001906200017592919062000363565b5050506000600b60006101000a81548160ff021916908315150217905550620001b3620001a76200029560201b60201c565b6200029d60201b60201c565b60405180606001604052806022815260200162004fcc60229139600c9080519060200190620001e492919062000363565b506001601860006101000a81548160ff021916908315150217905550600f54818362000211919062000480565b11156200025a5782600f8190555081601081905550806011819055506011546010546200023f919062000480565b600f546200024e9190620004dd565b6012819055506200028c565b6040517f8fa240e100000000000000000000000000000000000000000000000000000000815260040160405180910390fd5b505050620005d0565b600033905090565b6000600b60019054906101000a900473ffffffffffffffffffffffffffffffffffffffff16905081600b60016101000a81548173ffffffffffffffffffffffffffffffffffffffff021916908373ffffffffffffffffffffffffffffffffffffffff1602179055508173ffffffffffffffffffffffffffffffffffffffff168173ffffffffffffffffffffffffffffffffffffffff167f8be0079c531659141344cd1fd0a4f28419497f9722a3daafe3b4186f6b6457e060405160405180910390a35050565b828054620003719062000522565b90600052602060002090601f016020900481019282620003955760008555620003e1565b82601f10620003b057805160ff1916838001178555620003e1565b82800160010185558215620003e1579182015b82811115620003e0578251825591602001919060010190620003c3565b5b509050620003f09190620003f4565b5090565b5b808211156200040f576000816000905550600101620003f5565b5090565b6000815190506200042481620005b6565b92915050565b6000806000606084860312156200044057600080fd5b6000620004508682870162000413565b9350506020620004638682870162000413565b9250506040620004768682870162000413565b9150509250925092565b60006200048d8262000518565b91506200049a8362000518565b9250827fffffffffffffffffffffffffffffffffffffffffffffffffffffffffffffffff03821115620004d257620004d162000558565b5b828201905092915050565b6000620004ea8262000518565b9150620004f78362000518565b9250828210156200050d576200050c62000558565b5b828203905092915050565b6000819050919050565b600060028204905060018216806200053b57607f821691505b6020821081141562000552576200055162000587565b5b50919050565b7f4e487b7100000000000000000000000000000000000000000000000000000000600052601160045260246000fd5b7f4e487b7100000000000000000000000000000000000000000000000000000000600052602260045260246000fd5b620005c18162000518565b8114620005cd57600080fd5b50565b6149ec80620005e06000396000f3fe608060405234801561001057600080fd5b50600436106102745760003560e01c80636101409e11610151578063a36298c7116100c3578063c87b56dd11610087578063c87b56dd14610728578063d88c271e14610758578063d96bdd7b14610788578063e985e9c514610792578063f2fde38b146107c2578063ff240fce146107de57610274565b8063a36298c7146106aa578063a4331d2d146106c8578063ad6732c9146106e6578063b33712c514610702578063b88d4fde1461070c57610274565b8063715018a611610115578063715018a6146105fa578063894206a7146106045780638da5cb5b1461062257806395d89b41146106405780639d8637f31461065e578063a22cb4651461068e57610274565b80636101409e146105445780636352211e146105605780636c0360eb1461059057806370a08231146105ae57806370be219f146105de57610274565b8063302150e5116101ea5780634a4c560d116101ae5780634a4c560d146104815780634a7c01ec1461049d5780634d48417c146104bb5780634f6ccce7146104ec57806350448c7d1461051c5780635c975abb1461052657610274565b8063302150e51461040357806333abe54414610421578063363da98e1461043f57806342842e0e1461045b578063439766ce1461047757610274565b806318160ddd1161023c57806318160ddd146103435780631a23cda3146103615780631b7952751461037f57806323b872dd1461039b5780632f745c59146103b757806330043ab9146103e757610274565b806301ffc9a71461027957806305c87e9b146102a957806306fdde03146102d9578063081812fc146102f7578063095ea7b314610327575b600080fd5b610293600480360381019061028e919061395d565b6107fa565b6040516102a09190613eb3565b60405180910390f35b6102c360048036038101906102be9190613723565b61080c565b6040516102d09190613eb3565b60405180910390f35b6102e161082c565b6040516102ee9190613ece565b60405180910390f35b610311600480360381019061030c91906139f0565b6108be565b60405161031e9190613dae565b60405180910390f35b610341600480360381019061033c919061388e565b610904565b005b61034b610a1c565b6040516103589190614147565b60405180910390f35b610369610a29565b6040516103769190613ece565b60405180910390f35b610399600480360381019061039491906138ca565b610ab7565b005b6103b560048036038101906103b09190613788565b610e3d565b005b6103d160048036038101906103cc919061388e565b610e9d565b6040516103de9190614147565b60405180910390f35b61040160048036038101906103fc9190613723565b610f42565b005b61040b610fde565b6040516104189190614147565b60405180910390f35b610429610fe4565b6040516104369190613ece565b60405180910390f35b610459600480360381019061045491906139f0565b611072565b005b61047560048036038101906104709190613788565b611157565b005b61047f611177565b005b61049b60048036038101906104969190613723565b611189565b005b6104a56112a8565b6040516104b29190614147565b60405180910390f35b6104d560048036038101906104d091906139f0565b6112ae565b6040516104e3929190613ef0565b60405180910390f35b610506600480360381019061050191906139f0565b6113e2565b6040516105139190614147565b60405180910390f35b610524611479565b005b61052e611573565b60405161053b9190613eb3565b60405180910390f35b61055e600480360381019061055991906138ca565b61158a565b005b61057a600480360381019061057591906139f0565b61187a565b6040516105879190613dae565b60405180910390f35b61059861192c565b6040516105a59190613ece565b60405180910390f35b6105c860048036038101906105c39190613723565b6119ba565b6040516105d59190614147565b60405180910390f35b6105f860048036038101906105f391906138ca565b611a72565b005b610602611c7e565b005b61060c611c92565b6040516106199190614147565b60405180910390f35b61062a611c98565b6040516106379190613dae565b60405180910390f35b610648611cc2565b6040516106559190613ece565b60405180910390f35b61067860048036038101906106739190613723565b611d54565b6040516106859190614147565b60405180910390f35b6106a860048036038101906106a39190613852565b611d6c565b005b6106b2611d82565b6040516106bf9190614147565b60405180910390f35b6106d0611d88565b6040516106dd9190614147565b60405180910390f35b61070060048036038101906106fb91906139af565b611d8e565b005b61070a611e3e565b005b610726600480360381019061072191906137d7565b611e50565b005b610742600480360381019061073d91906139f0565b611eb2565b60405161074f9190613ece565b60405180910390f35b610772600480360381019061076d9190613723565b611ef3565b60405161077f9190613eb3565b60405180910390f35b610790611f13565b005b6107ac60048036038101906107a7919061374c565b612038565b6040516107b99190613eb3565b60405180910390f35b6107dc60048036038101906107d79190613723565b6120cc565b005b6107f860048036038101906107f39190613723565b612150565b005b6000610805826121ec565b9050919050565b601b6020528060005260406000206000915054906101000a900460ff1681565b60606000805461083b906143db565b80601f0160208091040260200160405190810160405280929190818152602001828054610867906143db565b80156108b45780601f10610889576101008083540402835291602001916108b4565b820191906000526020600020905b81548152906001019060200180831161089757829003601f168201915b5050505050905090565b60006108c982612266565b6004600083815260200190815260200160002060009054906101000a900473ffffffffffffffffffffffffffffffffffffffff169050919050565b600061090f8261187a565b90508073ffffffffffffffffffffffffffffffffffffffff168373ffffffffffffffffffffffffffffffffffffffff161415610980576040517f08c379a0000000000000000000000000000000000000000000000000000000008152600401610977906140e7565b60405180910390fd5b8073ffffffffffffffffffffffffffffffffffffffff1661099f6122b1565b73ffffffffffffffffffffffffffffffffffffffff1614806109ce57506109cd816109c86122b1565b612038565b5b610a0d576040517f08c379a0000000000000000000000000000000000000000000000000000000008152600401610a0490614067565b60405180910390fd5b610a1783836122b9565b505050565b6000600880549050905090565b600d8054610a36906143db565b80601f0160208091040260200160405190810160405280929190818152602001828054610a62906143db565b8015610aaf5780601f10610a8457610100808354040283529160200191610aaf565b820191906000526020600020905b815481529060010190602001808311610a9257829003601f168201915b505050505081565b60001515601860009054906101000a900460ff1615151415610b05576040517feb56075600000000000000000000000000000000000000000000000000000000815260040160405180910390fd5b60011515601860019054906101000a900460ff1615151415610b53576040517fa32c6c8600000000000000000000000000000000000000000000000000000000815260040160405180910390fd5b60001515601a60003373ffffffffffffffffffffffffffffffffffffffff1673ffffffffffffffffffffffffffffffffffffffff16815260200190815260200160002060009054906101000a900460ff1615151415610be957336040517faaab1cdb000000000000000000000000000000000000000000000000000000008152600401610be09190613dae565b60405180910390fd5b600f5460145410610c3357600f546040517f88d02989000000000000000000000000000000000000000000000000000000008152600401610c2a9190614147565b60405180910390fd5b60105460155410610c7d576010546040517f287c9278000000000000000000000000000000000000000000000000000000008152600401610c749190614147565b60405180910390fd5b601354601c60003373ffffffffffffffffffffffffffffffffffffffff1673ffffffffffffffffffffffffffffffffffffffff1681526020019081526020016000205410610d0657336013546040517f4248492e000000000000000000000000000000000000000000000000000000008152600401610cfd929190613e8a565b60405180910390fd5b610d108484612372565b604051806040016040528083815260200182815250601960008581526020019081526020016000206000820151816000019080519060200190610d54929190613547565b506020820151816001019080519060200190610d71929190613547565b5090505060156000815480929190610d889061443e565b919050555060146000815480929190610da09061443e565b9190505550601c60003373ffffffffffffffffffffffffffffffffffffffff1673ffffffffffffffffffffffffffffffffffffffff1681526020019081526020016000206000815480929190610df59061443e565b91905055507fbdec9d9be3d0cb4f3e0be34194454fc726b14d0a135ccaba9043afa8c329213533858585604051610e2f9493929190613e3e565b60405180910390a150505050565b610e4e610e486122b1565b82612390565b610e8d576040517f08c379a0000000000000000000000000000000000000000000000000000000008152600401610e8490614127565b60405180910390fd5b610e98838383612425565b505050565b6000610ea8836119ba565b8210610ee9576040517f08c379a0000000000000000000000000000000000000000000000000000000008152600401610ee090613f47565b60405180910390fd5b600660008473ffffffffffffffffffffffffffffffffffffffff1673ffffffffffffffffffffffffffffffffffffffff168152602001908152602001600020600083815260200190815260200160002054905092915050565b610f4a61268c565b6000601b60008373ffffffffffffffffffffffffffffffffffffffff1673ffffffffffffffffffffffffffffffffffffffff16815260200190815260200160002060006101000a81548160ff0219169083151502179055507fdb9d5d31320daf5bc7181d565b6da4d12e30f0f4d5aa324a992426c14a1d19ce3382604051610fd3929190613dc9565b60405180910390a150565b60105481565b600e8054610ff1906143db565b80601f016020809104026020016040519081016040528092919081815260200182805461101d906143db565b801561106a5780601f1061103f5761010080835404028352916020019161106a565b820191906000526020600020905b81548152906001019060200180831161104d57829003601f168201915b505050505081565b60001515601b60003373ffffffffffffffffffffffffffffffffffffffff1673ffffffffffffffffffffffffffffffffffffffff16815260200190815260200160002060009054906101000a900460ff161515141561110857336040517f0acb270c0000000000000000000000000000000000000000000000000000000081526004016110ff9190613dae565b60405180910390fd5b6000811161114d57806040517f0ff0f0280000000000000000000000000000000000000000000000000000000081526004016111449190614147565b60405180910390fd5b8060138190555050565b61117283838360405180602001604052806000815250611e50565b505050565b61117f61268c565b61118761270a565b565b60001515601b60003373ffffffffffffffffffffffffffffffffffffffff1673ffffffffffffffffffffffffffffffffffffffff16815260200190815260200160002060009054906101000a900460ff1615151415611214576040517f83afe2ce00000000000000000000000000000000000000000000000000000000815260040160405180910390fd5b6001601a60008373ffffffffffffffffffffffffffffffffffffffff1673ffffffffffffffffffffffffffffffffffffffff16815260200190815260200160002060006101000a81548160ff0219169083151502179055507fd5a3463a73e338373bd93cc821ed79709517f3fe24b9c0f8536dd2fa43635f86338260405161129d929190613dc9565b60405180910390a150565b60135481565b60196020528060005260406000206000915090508060000180546112d1906143db565b80601f01602080910402602001604051908101604052809291908181526020018280546112fd906143db565b801561134a5780601f1061131f5761010080835404028352916020019161134a565b820191906000526020600020905b81548152906001019060200180831161132d57829003601f168201915b50505050509080600101805461135f906143db565b80601f016020809104026020016040519081016040528092919081815260200182805461138b906143db565b80156113d85780601f106113ad576101008083540402835291602001916113d8565b820191906000526020600020905b8154815290600101906020018083116113bb57829003601f168201915b5050505050905082565b60006113ec610a1c565b821061142d576040517f08c379a000000000000000000000000000000000000000000000000000000000815260040161142490614107565b60405180910390fd5b60088281548110611467577f4e487b7100000000000000000000000000000000000000000000000000000000600052603260045260246000fd5b90600052602060002001549050919050565b61148161268c565b60001515601860009054906101000a900460ff1615151415611509576001601860006101000a81548160ff0219169083151502179055506040518060400160405280600681526020017f4163746976650000000000000000000000000000000000000000000000000000815250600e9080519060200190611503929190613547565b50611571565b6000601860006101000a81548160ff0219169083151502179055506040518060400160405280600681526020017f5061757365640000000000000000000000000000000000000000000000000000815250600e908051906020019061156f929190613547565b505b565b6000600b60009054906101000a900460ff16905090565b60001515601860009054906101000a900460ff16151514156115d8576040517feb56075600000000000000000000000000000000000000000000000000000000815260040160405180910390fd5b60001515601860019054906101000a900460ff1615151415611626576040517fc5d803ae00000000000000000000000000000000000000000000000000000000815260040160405180910390fd5b600f546014541061167057600f546040517f88d029890000000000000000000000000000000000000000000000000000000081526004016116679190614147565b60405180910390fd5b601254601654106116ba576012546040517f287c92780000000000000000000000000000000000000000000000000000000081526004016116b19190614147565b60405180910390fd5b601354601c60003373ffffffffffffffffffffffffffffffffffffffff1673ffffffffffffffffffffffffffffffffffffffff168152602001908152602001600020541061174357336013546040517f4248492e00000000000000000000000000000000000000000000000000000000815260040161173a929190613e8a565b60405180910390fd5b61174d8484612372565b604051806040016040528083815260200182815250601960008581526020019081526020016000206000820151816000019080519060200190611791929190613547565b5060208201518160010190805190602001906117ae929190613547565b50905050601660008154809291906117c59061443e565b9190505550601460008154809291906117dd9061443e565b9190505550601c60003373ffffffffffffffffffffffffffffffffffffffff1673ffffffffffffffffffffffffffffffffffffffff16815260200190815260200160002060008154809291906118329061443e565b91905055507fb7c26e46d569cc494bbdcf76aa653e506a9d12954a0dacbffd9c0861f38c1e3c3385858560405161186c9493929190613e3e565b60405180910390a150505050565b6000806002600084815260200190815260200160002060009054906101000a900473ffffffffffffffffffffffffffffffffffffffff169050600073ffffffffffffffffffffffffffffffffffffffff168173ffffffffffffffffffffffffffffffffffffffff161415611923576040517f08c379a000000000000000000000000000000000000000000000000000000000815260040161191a906140c7565b60405180910390fd5b80915050919050565b600c8054611939906143db565b80601f0160208091040260200160405190810160405280929190818152602001828054611965906143db565b80156119b25780601f10611987576101008083540402835291602001916119b2565b820191906000526020600020905b81548152906001019060200180831161199557829003601f168201915b505050505081565b60008073ffffffffffffffffffffffffffffffffffffffff168273ffffffffffffffffffffffffffffffffffffffff161415611a2b576040517f08c379a0000000000000000000000000000000000000000000000000000000008152600401611a2290614047565b60405180910390fd5b600360008373ffffffffffffffffffffffffffffffffffffffff1673ffffffffffffffffffffffffffffffffffffffff168152602001908152602001600020549050919050565b60001515601b60003373ffffffffffffffffffffffffffffffffffffffff1673ffffffffffffffffffffffffffffffffffffffff16815260200190815260200160002060009054906101000a900460ff1615151415611b0857336040517f0acb270c000000000000000000000000000000000000000000000000000000008152600401611aff9190613dae565b60405180910390fd5b600f5460145410611b5257600f546040517f88d02989000000000000000000000000000000000000000000000000000000008152600401611b499190614147565b60405180910390fd5b60115460175410611b9c576011546040517f287c9278000000000000000000000000000000000000000000000000000000008152600401611b939190614147565b60405180910390fd5b611ba68484612372565b604051806040016040528083815260200182815250601960008581526020019081526020016000206000820151816000019080519060200190611bea929190613547565b506020820151816001019080519060200190611c07929190613547565b5090505060176000815480929190611c1e9061443e565b919050555060146000815480929190611c369061443e565b91905055507f083b618550084140d50db0b1c18a352f7b4006baa8e9b8361c6b044594a7fd5333858585604051611c709493929190613e3e565b60405180910390a150505050565b611c8661268c565b611c90600061276d565b565b60115481565b6000600b60019054906101000a900473ffffffffffffffffffffffffffffffffffffffff16905090565b606060018054611cd1906143db565b80601f0160208091040260200160405190810160405280929190818152602001828054611cfd906143db565b8015611d4a5780601f10611d1f57610100808354040283529160200191611d4a565b820191906000526020600020905b815481529060010190602001808311611d2d57829003601f168201915b5050505050905090565b601c6020528060005260406000206000915090505481565b611d7e611d776122b1565b8383612833565b5050565b600f5481565b60125481565b60001515601b60003373ffffffffffffffffffffffffffffffffffffffff1673ffffffffffffffffffffffffffffffffffffffff16815260200190815260200160002060009054906101000a900460ff1615151415611e2457336040517f0acb270c000000000000000000000000000000000000000000000000000000008152600401611e1b9190613dae565b60405180910390fd5b80600c9080519060200190611e3a929190613547565b5050565b611e4661268c565b611e4e6129a0565b565b611e61611e5b6122b1565b83612390565b611ea0576040517f08c379a0000000000000000000000000000000000000000000000000000000008152600401611e9790614127565b60405180910390fd5b611eac84848484612a03565b50505050565b6060600c60196000848152602001908152602001600020600101604051602001611edd929190613d8a565b6040516020818303038152906040529050919050565b601a6020528060005260406000206000915054906101000a900460ff1681565b611f1b61268c565b60001515601860019054906101000a900460ff1615151415611fce576001601860016101000a81548160ff0219169083151502179055506040518060400160405280600681526020017f4163746976650000000000000000000000000000000000000000000000000000815250600d9080519060200190611f9d929190613547565b50601054601254611fae9190614241565b6012819055506000601054611fc39190614297565b601081905550612036565b6000601860016101000a81548160ff0219169083151502179055506040518060400160405280600881526020017f44697361626c6564000000000000000000000000000000000000000000000000815250600d9080519060200190612034929190613547565b505b565b6000600560008473ffffffffffffffffffffffffffffffffffffffff1673ffffffffffffffffffffffffffffffffffffffff16815260200190815260200160002060008373ffffffffffffffffffffffffffffffffffffffff1673ffffffffffffffffffffffffffffffffffffffff16815260200190815260200160002060009054906101000a900460ff16905092915050565b6120d461268c565b600073ffffffffffffffffffffffffffffffffffffffff168173ffffffffffffffffffffffffffffffffffffffff161415612144576040517f08c379a000000000000000000000000000000000000000000000000000000000815260040161213b90613f87565b60405180910390fd5b61214d8161276d565b50565b61215861268c565b6001601b60008373ffffffffffffffffffffffffffffffffffffffff1673ffffffffffffffffffffffffffffffffffffffff16815260200190815260200160002060006101000a81548160ff0219169083151502179055507f5e0c4fd88c6dad555d1d6e5d3bdc6dfd50078fcf66694b3b1df2146ab9d0ac3b33826040516121e1929190613dc9565b60405180910390a150565b60007f780e9d63000000000000000000000000000000000000000000000000000000007bffffffffffffffffffffffffffffffffffffffffffffffffffffffff1916827bffffffffffffffffffffffffffffffffffffffffffffffffffffffff1916148061225f575061225e82612a5f565b5b9050919050565b61226f81612b41565b6122ae576040517f08c379a00000000000000000000000000000000000000000000000000000000081526004016122a5906140c7565b60405180910390fd5b50565b600033905090565b816004600083815260200190815260200160002060006101000a81548173ffffffffffffffffffffffffffffffffffffffff021916908373ffffffffffffffffffffffffffffffffffffffff160217905550808273ffffffffffffffffffffffffffffffffffffffff1661232c8361187a565b73ffffffffffffffffffffffffffffffffffffffff167f8c5be1e5ebec7d5bd14f71427d1e84f3dd0314c0f7b2291e5b200ac8c7c3b92560405160405180910390a45050565b61238c828260405180602001604052806000815250612bad565b5050565b60008061239c8361187a565b90508073ffffffffffffffffffffffffffffffffffffffff168473ffffffffffffffffffffffffffffffffffffffff1614806123de57506123dd8185612038565b5b8061241c57508373ffffffffffffffffffffffffffffffffffffffff16612404846108be565b73ffffffffffffffffffffffffffffffffffffffff16145b91505092915050565b8273ffffffffffffffffffffffffffffffffffffffff166124458261187a565b73ffffffffffffffffffffffffffffffffffffffff161461249b576040517f08c379a000000000000000000000000000000000000000000000000000000000815260040161249290613fa7565b60405180910390fd5b600073ffffffffffffffffffffffffffffffffffffffff168273ffffffffffffffffffffffffffffffffffffffff16141561250b576040517f08c379a000000000000000000000000000000000000000000000000000000000815260040161250290613fe7565b60405180910390fd5b612516838383612c08565b6125216000826122b9565b6001600360008573ffffffffffffffffffffffffffffffffffffffff1673ffffffffffffffffffffffffffffffffffffffff168152602001908152602001600020600082825461257191906142f1565b925050819055506001600360008473ffffffffffffffffffffffffffffffffffffffff1673ffffffffffffffffffffffffffffffffffffffff16815260200190815260200160002060008282546125c89190614241565b92505081905550816002600083815260200190815260200160002060006101000a81548173ffffffffffffffffffffffffffffffffffffffff021916908373ffffffffffffffffffffffffffffffffffffffff160217905550808273ffffffffffffffffffffffffffffffffffffffff168473ffffffffffffffffffffffffffffffffffffffff167fddf252ad1be2c89b69c2b068fc378daa952ba7f163c4a11628f55a4df523b3ef60405160405180910390a4612687838383612c20565b505050565b6126946122b1565b73ffffffffffffffffffffffffffffffffffffffff166126b2611c98565b73ffffffffffffffffffffffffffffffffffffffff1614612708576040517f08c379a00000000000000000000000000000000000000000000000000000000081526004016126ff906140a7565b60405180910390fd5b565b612712612c25565b6001600b60006101000a81548160ff0219169083151502179055507f62e78cea01bee320cd4e420270b5ea74000d11b0c9f74754ebdbfc544b05a2586127566122b1565b6040516127639190613dae565b60405180910390a1565b6000600b60019054906101000a900473ffffffffffffffffffffffffffffffffffffffff16905081600b60016101000a81548173ffffffffffffffffffffffffffffffffffffffff021916908373ffffffffffffffffffffffffffffffffffffffff1602179055508173ffffffffffffffffffffffffffffffffffffffff168173ffffffffffffffffffffffffffffffffffffffff167f8be0079c531659141344cd1fd0a4f28419497f9722a3daafe3b4186f6b6457e060405160405180910390a35050565b8173ffffffffffffffffffffffffffffffffffffffff168373ffffffffffffffffffffffffffffffffffffffff1614156128a2576040517f08c379a000000000000000000000000000000000000000000000000000000000815260040161289990614007565b60405180910390fd5b80600560008573ffffffffffffffffffffffffffffffffffffffff1673ffffffffffffffffffffffffffffffffffffffff16815260200190815260200160002060008473ffffffffffffffffffffffffffffffffffffffff1673ffffffffffffffffffffffffffffffffffffffff16815260200190815260200160002060006101000a81548160ff0219169083151502179055508173ffffffffffffffffffffffffffffffffffffffff168373ffffffffffffffffffffffffffffffffffffffff167f17307eab39ab6107e8899845ad3d59bd9653f200f220920489ca2b5937696c31836040516129939190613eb3565b60405180910390a3505050565b6129a8612c6f565b6000600b60006101000a81548160ff0219169083151502179055507f5db9ee0a495bf2e6ff9c91a7834c1ba4fdd244a5e8aa4e537bd38aeae4b073aa6129ec6122b1565b6040516129f99190613dae565b60405180910390a1565b612a0e848484612425565b612a1a84848484612cb8565b612a59576040517f08c379a0000000000000000000000000000000000000000000000000000000008152600401612a5090613f67565b60405180910390fd5b50505050565b60007f80ac58cd000000000000000000000000000000000000000000000000000000007bffffffffffffffffffffffffffffffffffffffffffffffffffffffff1916827bffffffffffffffffffffffffffffffffffffffffffffffffffffffff19161480612b2a57507f5b5e139f000000000000000000000000000000000000000000000000000000007bffffffffffffffffffffffffffffffffffffffffffffffffffffffff1916827bffffffffffffffffffffffffffffffffffffffffffffffffffffffff1916145b80612b3a5750612b3982612e4f565b5b9050919050565b60008073ffffffffffffffffffffffffffffffffffffffff166002600084815260200190815260200160002060009054906101000a900473ffffffffffffffffffffffffffffffffffffffff1673ffffffffffffffffffffffffffffffffffffffff1614159050919050565b612bb78383612eb9565b612bc46000848484612cb8565b612c03576040517f08c379a0000000000000000000000000000000000000000000000000000000008152600401612bfa90613f67565b60405180910390fd5b505050565b612c10612c25565b612c1b838383613093565b505050565b505050565b612c2d611573565b15612c6d576040517f08c379a0000000000000000000000000000000000000000000000000000000008152600401612c6490614027565b60405180910390fd5b565b612c77611573565b612cb6576040517f08c379a0000000000000000000000000000000000000000000000000000000008152600401612cad90613f27565b60405180910390fd5b565b6000612cd98473ffffffffffffffffffffffffffffffffffffffff166131a7565b15612e42578373ffffffffffffffffffffffffffffffffffffffff1663150b7a02612d026122b1565b8786866040518563ffffffff1660e01b8152600401612d249493929190613df2565b602060405180830381600087803b158015612d3e57600080fd5b505af1925050508015612d6f57506040513d601f19601f82011682018060405250810190612d6c9190613986565b60015b612df2573d8060008114612d9f576040519150601f19603f3d011682016040523d82523d6000602084013e612da4565b606091505b50600081511415612dea576040517f08c379a0000000000000000000000000000000000000000000000000000000008152600401612de190613f67565b60405180910390fd5b805181602001fd5b63150b7a0260e01b7bffffffffffffffffffffffffffffffffffffffffffffffffffffffff1916817bffffffffffffffffffffffffffffffffffffffffffffffffffffffff191614915050612e47565b600190505b949350505050565b60007f01ffc9a7000000000000000000000000000000000000000000000000000000007bffffffffffffffffffffffffffffffffffffffffffffffffffffffff1916827bffffffffffffffffffffffffffffffffffffffffffffffffffffffff1916149050919050565b600073ffffffffffffffffffffffffffffffffffffffff168273ffffffffffffffffffffffffffffffffffffffff161415612f29576040517f08c379a0000000000000000000000000000000000000000000000000000000008152600401612f2090614087565b60405180910390fd5b612f3281612b41565b15612f72576040517f08c379a0000000000000000000000000000000000000000000000000000000008152600401612f6990613fc7565b60405180910390fd5b612f7e60008383612c08565b6001600360008473ffffffffffffffffffffffffffffffffffffffff1673ffffffffffffffffffffffffffffffffffffffff1681526020019081526020016000206000828254612fce9190614241565b92505081905550816002600083815260200190815260200160002060006101000a81548173ffffffffffffffffffffffffffffffffffffffff021916908373ffffffffffffffffffffffffffffffffffffffff160217905550808273ffffffffffffffffffffffffffffffffffffffff16600073ffffffffffffffffffffffffffffffffffffffff167fddf252ad1be2c89b69c2b068fc378daa952ba7f163c4a11628f55a4df523b3ef60405160405180910390a461308f60008383612c20565b5050565b61309e8383836131ca565b600073ffffffffffffffffffffffffffffffffffffffff168373ffffffffffffffffffffffffffffffffffffffff1614156130e1576130dc816131cf565b613120565b8173ffffffffffffffffffffffffffffffffffffffff168373ffffffffffffffffffffffffffffffffffffffff161461311f5761311e8382613218565b5b5b600073ffffffffffffffffffffffffffffffffffffffff168273ffffffffffffffffffffffffffffffffffffffff1614156131635761315e81613385565b6131a2565b8273ffffffffffffffffffffffffffffffffffffffff168273ffffffffffffffffffffffffffffffffffffffff16146131a1576131a082826134c8565b5b5b505050565b6000808273ffffffffffffffffffffffffffffffffffffffff163b119050919050565b505050565b6008805490506009600083815260200190815260200160002081905550600881908060018154018082558091505060019003906000526020600020016000909190919091505550565b60006001613225846119ba565b61322f91906142f1565b9050600060076000848152602001908152602001600020549050818114613314576000600660008673ffffffffffffffffffffffffffffffffffffffff1673ffffffffffffffffffffffffffffffffffffffff168152602001908152602001600020600084815260200190815260200160002054905080600660008773ffffffffffffffffffffffffffffffffffffffff1673ffffffffffffffffffffffffffffffffffffffff168152602001908152602001600020600084815260200190815260200160002081905550816007600083815260200190815260200160002081905550505b6007600084815260200190815260200160002060009055600660008573ffffffffffffffffffffffffffffffffffffffff1673ffffffffffffffffffffffffffffffffffffffff16815260200190815260200160002060008381526020019081526020016000206000905550505050565b6000600160088054905061339991906142f1565b90506000600960008481526020019081526020016000205490506000600883815481106133ef577f4e487b7100000000000000000000000000000000000000000000000000000000600052603260045260246000fd5b906000526020600020015490508060088381548110613437577f4e487b7100000000000000000000000000000000000000000000000000000000600052603260045260246000fd5b9060005260206000200181905550816009600083815260200190815260200160002081905550600960008581526020019081526020016000206000905560088054806134ac577f4e487b7100000000000000000000000000000000000000000000000000000000600052603160045260246000fd5b6001900381819060005260206000200160009055905550505050565b60006134d3836119ba565b905081600660008573ffffffffffffffffffffffffffffffffffffffff1673ffffffffffffffffffffffffffffffffffffffff168152602001908152602001600020600083815260200190815260200160002081905550806007600084815260200190815260200160002081905550505050565b828054613553906143db565b90600052602060002090601f01602090048101928261357557600085556135bc565b82601f1061358e57805160ff19168380011785556135bc565b828001600101855582156135bc579182015b828111156135bb5782518255916020019190600101906135a0565b5b5090506135c991906135cd565b5090565b5b808211156135e65760008160009055506001016135ce565b5090565b60006135fd6135f884614187565b614162565b90508281526020810184848401111561361557600080fd5b613620848285614399565b509392505050565b600061363b613636846141b8565b614162565b90508281526020810184848401111561365357600080fd5b61365e848285614399565b509392505050565b6000813590506136758161495a565b92915050565b60008135905061368a81614971565b92915050565b60008135905061369f81614988565b92915050565b6000815190506136b481614988565b92915050565b600082601f8301126136cb57600080fd5b81356136db8482602086016135ea565b91505092915050565b600082601f8301126136f557600080fd5b8135613705848260208601613628565b91505092915050565b60008135905061371d8161499f565b92915050565b60006020828403121561373557600080fd5b600061374384828501613666565b91505092915050565b6000806040838503121561375f57600080fd5b600061376d85828601613666565b925050602061377e85828601613666565b9150509250929050565b60008060006060848603121561379d57600080fd5b60006137ab86828701613666565b93505060206137bc86828701613666565b92505060406137cd8682870161370e565b9150509250925092565b600080600080608085870312156137ed57600080fd5b60006137fb87828801613666565b945050602061380c87828801613666565b935050604061381d8782880161370e565b925050606085013567ffffffffffffffff81111561383a57600080fd5b613846878288016136ba565b91505092959194509250565b6000806040838503121561386557600080fd5b600061387385828601613666565b92505060206138848582860161367b565b9150509250929050565b600080604083850312156138a157600080fd5b60006138af85828601613666565b92505060206138c08582860161370e565b9150509250929050565b600080600080608085870312156138e057600080fd5b60006138ee87828801613666565b94505060206138ff8782880161370e565b935050604085013567ffffffffffffffff81111561391c57600080fd5b613928878288016136e4565b925050606085013567ffffffffffffffff81111561394557600080fd5b613951878288016136e4565b91505092959194509250565b60006020828403121561396f57600080fd5b600061397d84828501613690565b91505092915050565b60006020828403121561399857600080fd5b60006139a6848285016136a5565b91505092915050565b6000602082840312156139c157600080fd5b600082013567ffffffffffffffff8111156139db57600080fd5b6139e7848285016136e4565b91505092915050565b600060208284031215613a0257600080fd5b6000613a108482850161370e565b91505092915050565b613a2281614325565b82525050565b613a3181614337565b82525050565b6000613a42826141fe565b613a4c8185614214565b9350613a5c8185602086016143a8565b613a6581614514565b840191505092915050565b6000613a7b82614209565b613a858185614225565b9350613a958185602086016143a8565b613a9e81614514565b840191505092915050565b60008154613ab6816143db565b613ac08186614236565b94506001821660008114613adb5760018114613aec57613b1f565b60ff19831686528186019350613b1f565b613af5856141e9565b60005b83811015613b1757815481890152600182019150602081019050613af8565b838801955050505b50505092915050565b6000613b35601483614225565b9150613b4082614525565b602082019050919050565b6000613b58602b83614225565b9150613b638261454e565b604082019050919050565b6000613b7b603283614225565b9150613b868261459d565b604082019050919050565b6000613b9e602683614225565b9150613ba9826145ec565b604082019050919050565b6000613bc1602583614225565b9150613bcc8261463b565b604082019050919050565b6000613be4601c83614225565b9150613bef8261468a565b602082019050919050565b6000613c07602483614225565b9150613c12826146b3565b604082019050919050565b6000613c2a601983614225565b9150613c3582614702565b602082019050919050565b6000613c4d601083614225565b9150613c588261472b565b602082019050919050565b6000613c70602983614225565b9150613c7b82614754565b604082019050919050565b6000613c93603e83614225565b9150613c9e826147a3565b604082019050919050565b6000613cb6602083614225565b9150613cc1826147f2565b602082019050919050565b6000613cd9602083614225565b9150613ce48261481b565b602082019050919050565b6000613cfc601883614225565b9150613d0782614844565b602082019050919050565b6000613d1f602183614225565b9150613d2a8261486d565b604082019050919050565b6000613d42602c83614225565b9150613d4d826148bc565b604082019050919050565b6000613d65602e83614225565b9150613d708261490b565b604082019050919050565b613d848161438f565b82525050565b6000613d968285613aa9565b9150613da28284613aa9565b91508190509392505050565b6000602082019050613dc36000830184613a19565b92915050565b6000604082019050613dde6000830185613a19565b613deb6020830184613a19565b9392505050565b6000608082019050613e076000830187613a19565b613e146020830186613a19565b613e216040830185613d7b565b8181036060830152613e338184613a37565b905095945050505050565b6000608082019050613e536000830187613a19565b613e606020830186613a19565b613e6d6040830185613d7b565b8181036060830152613e7f8184613a70565b905095945050505050565b6000604082019050613e9f6000830185613a19565b613eac6020830184613d7b565b9392505050565b6000602082019050613ec86000830184613a28565b92915050565b60006020820190508181036000830152613ee88184613a70565b905092915050565b60006040820190508181036000830152613f0a8185613a70565b90508181036020830152613f1e8184613a70565b90509392505050565b60006020820190508181036000830152613f4081613b28565b9050919050565b60006020820190508181036000830152613f6081613b4b565b9050919050565b60006020820190508181036000830152613f8081613b6e565b9050919050565b60006020820190508181036000830152613fa081613b91565b9050919050565b60006020820190508181036000830152613fc081613bb4565b9050919050565b60006020820190508181036000830152613fe081613bd7565b9050919050565b6000602082019050818103600083015261400081613bfa565b9050919050565b6000602082019050818103600083015261402081613c1d565b9050919050565b6000602082019050818103600083015261404081613c40565b9050919050565b6000602082019050818103600083015261406081613c63565b9050919050565b6000602082019050818103600083015261408081613c86565b9050919050565b600060208201905081810360008301526140a081613ca9565b9050919050565b600060208201905081810360008301526140c081613ccc565b9050919050565b600060208201905081810360008301526140e081613cef565b9050919050565b6000602082019050818103600083015261410081613d12565b9050919050565b6000602082019050818103600083015261412081613d35565b9050919050565b6000602082019050818103600083015261414081613d58565b9050919050565b600060208201905061415c6000830184613d7b565b92915050565b600061416c61417d565b9050614178828261440d565b919050565b6000604051905090565b600067ffffffffffffffff8211156141a2576141a16144e5565b5b6141ab82614514565b9050602081019050919050565b600067ffffffffffffffff8211156141d3576141d26144e5565b5b6141dc82614514565b9050602081019050919050565b60008190508160005260206000209050919050565b600081519050919050565b600081519050919050565b600082825260208201905092915050565b600082825260208201905092915050565b600081905092915050565b600061424c8261438f565b91506142578361438f565b9250827fffffffffffffffffffffffffffffffffffffffffffffffffffffffffffffffff0382111561428c5761428b614487565b5b828201905092915050565b60006142a28261438f565b91506142ad8361438f565b9250817fffffffffffffffffffffffffffffffffffffffffffffffffffffffffffffffff04831182151516156142e6576142e5614487565b5b828202905092915050565b60006142fc8261438f565b91506143078361438f565b92508282101561431a57614319614487565b5b828203905092915050565b60006143308261436f565b9050919050565b60008115159050919050565b60007fffffffff0000000000000000000000000000000000000000000000000000000082169050919050565b600073ffffffffffffffffffffffffffffffffffffffff82169050919050565b6000819050919050565b82818337600083830152505050565b60005b838110156143c65780820151818401526020810190506143ab565b838111156143d5576000848401525b50505050565b600060028204905060018216806143f357607f821691505b60208210811415614407576144066144b6565b5b50919050565b61441682614514565b810181811067ffffffffffffffff82111715614435576144346144e5565b5b80604052505050565b60006144498261438f565b91507fffffffffffffffffffffffffffffffffffffffffffffffffffffffffffffffff82141561447c5761447b614487565b5b600182019050919050565b7f4e487b7100000000000000000000000000000000000000000000000000000000600052601160045260246000fd5b7f4e487b7100000000000000000000000000000000000000000000000000000000600052602260045260246000fd5b7f4e487b7100000000000000000000000000000000000000000000000000000000600052604160045260246000fd5b6000601f19601f8301169050919050565b7f5061757361626c653a206e6f7420706175736564000000000000000000000000600082015250565b7f455243373231456e756d657261626c653a206f776e657220696e646578206f7560008201527f74206f6620626f756e6473000000000000000000000000000000000000000000602082015250565b7f4552433732313a207472616e7366657220746f206e6f6e20455243373231526560008201527f63656976657220696d706c656d656e7465720000000000000000000000000000602082015250565b7f4f776e61626c653a206e6577206f776e657220697320746865207a65726f206160008201527f6464726573730000000000000000000000000000000000000000000000000000602082015250565b7f4552433732313a207472616e736665722066726f6d20696e636f72726563742060008201527f6f776e6572000000000000000000000000000000000000000000000000000000602082015250565b7f4552433732313a20746f6b656e20616c7265616479206d696e74656400000000600082015250565b7f4552433732313a207472616e7366657220746f20746865207a65726f2061646460008201527f7265737300000000000000000000000000000000000000000000000000000000602082015250565b7f4552433732313a20617070726f766520746f2063616c6c657200000000000000600082015250565b7f5061757361626c653a2070617573656400000000000000000000000000000000600082015250565b7f4552433732313a2061646472657373207a65726f206973206e6f74206120766160008201527f6c6964206f776e65720000000000000000000000000000000000000000000000602082015250565b7f4552433732313a20617070726f76652063616c6c6572206973206e6f7420746f60008201527f6b656e206f776e6572206e6f7220617070726f76656420666f7220616c6c0000602082015250565b7f4552433732313a206d696e7420746f20746865207a65726f2061646472657373600082015250565b7f4f776e61626c653a2063616c6c6572206973206e6f7420746865206f776e6572600082015250565b7f4552433732313a20696e76616c696420746f6b656e2049440000000000000000600082015250565b7f4552433732313a20617070726f76616c20746f2063757272656e74206f776e6560008201527f7200000000000000000000000000000000000000000000000000000000000000602082015250565b7f455243373231456e756d657261626c653a20676c6f62616c20696e646578206f60008201527f7574206f6620626f756e64730000000000000000000000000000000000000000602082015250565b7f4552433732313a2063616c6c6572206973206e6f7420746f6b656e206f776e6560008201527f72206e6f7220617070726f766564000000000000000000000000000000000000602082015250565b61496381614325565b811461496e57600080fd5b50565b61497a81614337565b811461498557600080fd5b50565b61499181614343565b811461499c57600080fd5b50565b6149a88161438f565b81146149b357600080fd5b5056fea26469706673582212203753272f498033745ccd002458ccd77db95ba0563f15e8a9ac755225c7cf637b64736f6c6343000804003368747470733a2f2f676174657761792e70696e6174612e636c6f75642f697066732f",
  "linkReferences": {},
  "deployedLinkReferences": {}
}